{
  "contractName": "Registry",
  "abi": [
    {
      "anonymous": false,
      "inputs": [
        {
          "indexed": true,
          "internalType": "address",
          "name": "previousOwner",
          "type": "address"
        },
        {
          "indexed": true,
          "internalType": "address",
          "name": "newOwner",
          "type": "address"
        }
      ],
      "name": "OwnershipTransferred",
      "type": "event"
    },
    {
      "inputs": [
        {
          "internalType": "address",
          "name": "",
          "type": "address"
        }
      ],
      "name": "ImplementingPartners",
      "outputs": [
        {
          "internalType": "uint64",
          "name": "LegalEntityIdentifier",
          "type": "uint64"
        },
        {
          "internalType": "string",
          "name": "name",
          "type": "string"
        }
      ],
      "stateMutability": "view",
      "type": "function",
      "constant": true
    },
    {
      "inputs": [
        {
          "internalType": "uint16",
          "name": "",
          "type": "uint16"
        }
      ],
      "name": "ImplementingPartnersList",
      "outputs": [
        {
          "internalType": "address",
          "name": "",
          "type": "address"
        }
      ],
      "stateMutability": "view",
      "type": "function",
      "constant": true
    },
    {
      "inputs": [],
      "name": "owner",
      "outputs": [
        {
          "internalType": "address",
          "name": "",
          "type": "address"
        }
      ],
      "stateMutability": "view",
      "type": "function",
      "constant": true
    },
    {
      "inputs": [],
      "name": "renounceOwnership",
      "outputs": [],
      "stateMutability": "nonpayable",
      "type": "function"
    },
    {
      "inputs": [
        {
          "internalType": "address",
          "name": "newOwner",
          "type": "address"
        }
      ],
      "name": "transferOwnership",
      "outputs": [],
      "stateMutability": "nonpayable",
      "type": "function"
    },
    {
      "inputs": [
        {
          "internalType": "address",
          "name": "addr",
          "type": "address"
        }
      ],
      "name": "isOwner",
      "outputs": [
        {
          "internalType": "bool",
          "name": "",
          "type": "bool"
        }
      ],
      "stateMutability": "view",
      "type": "function",
      "constant": true
    },
    {
      "inputs": [
        {
          "internalType": "address",
          "name": "addr",
          "type": "address"
        }
      ],
      "name": "isRegistered",
      "outputs": [
        {
          "internalType": "bool",
          "name": "",
          "type": "bool"
        }
      ],
      "stateMutability": "view",
      "type": "function",
      "constant": true
    },
    {
      "inputs": [],
      "name": "lastId",
      "outputs": [
        {
          "internalType": "uint16",
          "name": "",
          "type": "uint16"
        }
      ],
      "stateMutability": "view",
      "type": "function",
      "constant": true
    },
    {
      "inputs": [
        {
          "internalType": "uint64",
          "name": "_legalEntityIdentifier",
          "type": "uint64"
        },
        {
          "internalType": "string",
          "name": "_name",
          "type": "string"
        },
        {
          "internalType": "address",
          "name": "addr",
          "type": "address"
        }
      ],
      "name": "registerImplementingPartner",
      "outputs": [],
      "stateMutability": "nonpayable",
      "type": "function"
    }
  ],
  "bytecode": "0x608060405260008060146101000a81548161ffff021916908361ffff16021790555034801561002d57600080fd5b5061004a61003f61004f60201b60201c565b61005760201b60201c565b61011b565b600033905090565b60008060009054906101000a900473ffffffffffffffffffffffffffffffffffffffff169050816000806101000a81548173ffffffffffffffffffffffffffffffffffffffff021916908373ffffffffffffffffffffffffffffffffffffffff1602179055508173ffffffffffffffffffffffffffffffffffffffff168173ffffffffffffffffffffffffffffffffffffffff167f8be0079c531659141344cd1fd0a4f28419497f9722a3daafe3b4186f6b6457e060405160405180910390a35050565b610ebe8061012a6000396000f3fe608060405234801561001057600080fd5b50600436106100935760003560e01c80638da5cb5b116100665780638da5cb5b1461011e578063c1292cc31461013c578063c3c5a5471461015a578063d808cd071461018a578063f2fde38b146101bb57610093565b806327cb85d9146100985780632f54bf6e146100b4578063715018a6146100e457806386f35258146100ee575b600080fd5b6100b260048036038101906100ad9190610a6e565b6101d7565b005b6100ce60048036038101906100c99190610add565b6103a8565b6040516100db9190610b25565b60405180910390f35b6100ec6103e7565b005b61010860048036038101906101039190610b7a565b61046f565b6040516101159190610bb6565b60405180910390f35b6101266104a2565b6040516101339190610bb6565b60405180910390f35b6101446104cb565b6040516101519190610be0565b60405180910390f35b610174600480360381019061016f9190610add565b6104e2565b6040516101819190610b25565b60405180910390f35b6101a4600480360381019061019f9190610add565b61054f565b6040516101b2929190610c92565b60405180910390f35b6101d560048036038101906101d09190610add565b61060f565b005b6101df610707565b73ffffffffffffffffffffffffffffffffffffffff166101fd6104a2565b73ffffffffffffffffffffffffffffffffffffffff1614610253576040517f08c379a000000000000000000000000000000000000000000000000000000000815260040161024a90610d0e565b60405180910390fd5b60405180604001604052808467ffffffffffffffff16815260200183815250600160008373ffffffffffffffffffffffffffffffffffffffff1673ffffffffffffffffffffffffffffffffffffffff16815260200190815260200160002060008201518160000160006101000a81548167ffffffffffffffff021916908367ffffffffffffffff16021790555060208201518160010190805190602001906102fc9291906107d3565b509050506001600060148282829054906101000a900461ffff166103209190610d5d565b92506101000a81548161ffff021916908361ffff16021790555080600260008060149054906101000a900461ffff1661ffff1661ffff16815260200190815260200160002060006101000a81548173ffffffffffffffffffffffffffffffffffffffff021916908373ffffffffffffffffffffffffffffffffffffffff160217905550505050565b60006103b26104a2565b73ffffffffffffffffffffffffffffffffffffffff168273ffffffffffffffffffffffffffffffffffffffff16149050919050565b6103ef610707565b73ffffffffffffffffffffffffffffffffffffffff1661040d6104a2565b73ffffffffffffffffffffffffffffffffffffffff1614610463576040517f08c379a000000000000000000000000000000000000000000000000000000000815260040161045a90610d0e565b60405180910390fd5b61046d600061070f565b565b60026020528060005260406000206000915054906101000a900473ffffffffffffffffffffffffffffffffffffffff1681565b60008060009054906101000a900473ffffffffffffffffffffffffffffffffffffffff16905090565b60008060149054906101000a900461ffff16905090565b600080600160008473ffffffffffffffffffffffffffffffffffffffff1673ffffffffffffffffffffffffffffffffffffffff16815260200190815260200160002060000160009054906101000a900467ffffffffffffffff1667ffffffffffffffff1614159050919050565b60016020528060005260406000206000915090508060000160009054906101000a900467ffffffffffffffff169080600101805461058c90610dc4565b80601f01602080910402602001604051908101604052809291908181526020018280546105b890610dc4565b80156106055780601f106105da57610100808354040283529160200191610605565b820191906000526020600020905b8154815290600101906020018083116105e857829003601f168201915b5050505050905082565b610617610707565b73ffffffffffffffffffffffffffffffffffffffff166106356104a2565b73ffffffffffffffffffffffffffffffffffffffff161461068b576040517f08c379a000000000000000000000000000000000000000000000000000000000815260040161068290610d0e565b60405180910390fd5b600073ffffffffffffffffffffffffffffffffffffffff168173ffffffffffffffffffffffffffffffffffffffff1614156106fb576040517f08c379a00000000000000000000000000000000000000000000000000000000081526004016106f290610e68565b60405180910390fd5b6107048161070f565b50565b600033905090565b60008060009054906101000a900473ffffffffffffffffffffffffffffffffffffffff169050816000806101000a81548173ffffffffffffffffffffffffffffffffffffffff021916908373ffffffffffffffffffffffffffffffffffffffff1602179055508173ffffffffffffffffffffffffffffffffffffffff168173ffffffffffffffffffffffffffffffffffffffff167f8be0079c531659141344cd1fd0a4f28419497f9722a3daafe3b4186f6b6457e060405160405180910390a35050565b8280546107df90610dc4565b90600052602060002090601f0160209004810192826108015760008555610848565b82601f1061081a57805160ff1916838001178555610848565b82800160010185558215610848579182015b8281111561084757825182559160200191906001019061082c565b5b5090506108559190610859565b5090565b5b8082111561087257600081600090555060010161085a565b5090565b6000604051905090565b600080fd5b600080fd5b600067ffffffffffffffff82169050919050565b6108a78161088a565b81146108b257600080fd5b50565b6000813590506108c48161089e565b92915050565b600080fd5b600080fd5b6000601f19601f8301169050919050565b7f4e487b7100000000000000000000000000000000000000000000000000000000600052604160045260246000fd5b61091d826108d4565b810181811067ffffffffffffffff8211171561093c5761093b6108e5565b5b80604052505050565b600061094f610876565b905061095b8282610914565b919050565b600067ffffffffffffffff82111561097b5761097a6108e5565b5b610984826108d4565b9050602081019050919050565b82818337600083830152505050565b60006109b36109ae84610960565b610945565b9050828152602081018484840111156109cf576109ce6108cf565b5b6109da848285610991565b509392505050565b600082601f8301126109f7576109f66108ca565b5b8135610a078482602086016109a0565b91505092915050565b600073ffffffffffffffffffffffffffffffffffffffff82169050919050565b6000610a3b82610a10565b9050919050565b610a4b81610a30565b8114610a5657600080fd5b50565b600081359050610a6881610a42565b92915050565b600080600060608486031215610a8757610a86610880565b5b6000610a95868287016108b5565b935050602084013567ffffffffffffffff811115610ab657610ab5610885565b5b610ac2868287016109e2565b9250506040610ad386828701610a59565b9150509250925092565b600060208284031215610af357610af2610880565b5b6000610b0184828501610a59565b91505092915050565b60008115159050919050565b610b1f81610b0a565b82525050565b6000602082019050610b3a6000830184610b16565b92915050565b600061ffff82169050919050565b610b5781610b40565b8114610b6257600080fd5b50565b600081359050610b7481610b4e565b92915050565b600060208284031215610b9057610b8f610880565b5b6000610b9e84828501610b65565b91505092915050565b610bb081610a30565b82525050565b6000602082019050610bcb6000830184610ba7565b92915050565b610bda81610b40565b82525050565b6000602082019050610bf56000830184610bd1565b92915050565b610c048161088a565b82525050565b600081519050919050565b600082825260208201905092915050565b60005b83811015610c44578082015181840152602081019050610c29565b83811115610c53576000848401525b50505050565b6000610c6482610c0a565b610c6e8185610c15565b9350610c7e818560208601610c26565b610c87816108d4565b840191505092915050565b6000604082019050610ca76000830185610bfb565b8181036020830152610cb98184610c59565b90509392505050565b7f4f776e61626c653a2063616c6c6572206973206e6f7420746865206f776e6572600082015250565b6000610cf8602083610c15565b9150610d0382610cc2565b602082019050919050565b60006020820190508181036000830152610d2781610ceb565b9050919050565b7f4e487b7100000000000000000000000000000000000000000000000000000000600052601160045260246000fd5b6000610d6882610b40565b9150610d7383610b40565b92508261ffff03821115610d8a57610d89610d2e565b5b828201905092915050565b7f4e487b7100000000000000000000000000000000000000000000000000000000600052602260045260246000fd5b60006002820490506001821680610ddc57607f821691505b60208210811415610df057610def610d95565b5b50919050565b7f4f776e61626c653a206e6577206f776e657220697320746865207a65726f206160008201527f6464726573730000000000000000000000000000000000000000000000000000602082015250565b6000610e52602683610c15565b9150610e5d82610df6565b604082019050919050565b60006020820190508181036000830152610e8181610e45565b905091905056fea26469706673582212203cf0b9196b659545514f754c5dea7995177af24f09fc851097c8c469679bbb7a64736f6c634300080c0033",
  "immutableReferences": {},
  "source": "pragma solidity ^0.8.12;\n\nimport \"@openzeppelin/contracts/access/Ownable.sol\";\n\ncontract Registry is Ownable {\n    struct ImplementingPartnerInfo {\n        uint64 LegalEntityIdentifier;\n        string name;\n    }\n\n    uint16 _id=0;\n\n    mapping(address => ImplementingPartnerInfo) public ImplementingPartners;\n    mapping(uint16 => address) public ImplementingPartnersList;\n\n    function isOwner(address addr) public view returns (bool) {\n        return (addr == owner());\n    }\n\n    function isRegistered(address addr) public view returns (bool) {\n        return ImplementingPartners[addr].LegalEntityIdentifier != 0;\n    }\n\n    function lastId() public view returns (uint16) {\n        return _id;\n    }\n\n    function registerImplementingPartner(\n        uint64 _legalEntityIdentifier,\n        string memory _name,\n        address addr\n    ) public onlyOwner {\n        ImplementingPartners[addr] = ImplementingPartnerInfo(\n            _legalEntityIdentifier,\n            _name\n        );\n        _id+=1;\n        ImplementingPartnersList[_id]=addr;\n    }\n\n}\n",
  "sourcePath": "/work/unicef/contracts/Registry.sol",
  "compiler": {
    "name": "solc",
    "version": "0.8.12+commit.f00d7308.Emscripten.clang"
  },
  "schemaVersion": "3.4.5",
  "updatedAt": "2022-03-06T13:58:32.398Z",
  "networkType": "ethereum",
  "devdoc": {
    "kind": "dev",
    "methods": {
      "owner()": {
        "details": "Returns the address of the current owner."
      },
      "renounceOwnership()": {
        "details": "Leaves the contract without owner. It will not be possible to call `onlyOwner` functions anymore. Can only be called by the current owner. NOTE: Renouncing ownership will leave the contract without an owner, thereby removing any functionality that is only available to the owner."
      },
      "transferOwnership(address)": {
        "details": "Transfers ownership of the contract to a new account (`newOwner`). Can only be called by the current owner."
      }
    },
    "version": 1
  },
  "userdoc": {
    "kind": "user",
    "methods": {},
    "version": 1
  }
}